:100000000C9462000C948A000C948A000C948A0070
:100010000C948A000C948A000C948A000C948A0038
:100020000C948A000C948A000C948A000C948A0028
:100030000C948A000C948A000C948A000C948A0018
:100040000C940A070C948A000C94D8060C94B206FF
:100050000C948A000C948A000C948A000C948A00F8
:100060000C948A000C948A000000000024002700F1
:100070002A0000000000250028002B0000000008D6
:10008000000201000003040700000000000000005F
:1000900000000000230026002900040404040404D6
:1000A0000404020202020202030303030303010227
:1000B00004081020408001020408102001020408F6
:1000C0001020540711241FBECFEFD8E0DEBFCDBFF4
:1000D00011E0A0E0B1E0E8E5FAE102C005900D9280
:1000E000AC3BB107D9F722E0ACEBB1E001C01D9207
:1000F000A339B207E1F710E0C2E6D0E004C02197CF
:10010000FE010E94240DC136D107C9F70E94C10724
:100110000C942A0D0C94000081E480937C00809163
:100120007A00806480937A0080917A0086FDFCCF0B
:1001300080917800909179000895CF92DF92EF92AC
:10014000FF92CF93DF93B0916F02A0E08111AB2FAC
:100150008091700290E0880F991FAC0140575F4F6B
:10016000C0907502D0907602E0907702F09078020D
:1001700030E020E0FA01C591D491E881B90190E026
:1001800080E0EB23EA130AC02F5F3F4F6C157D051B
:100190008E059F0578F36FEF7FEFCB01DF91CF9155
:1001A000FF90EF90DF90CF900895DC01ED91FC91EE
:1001B0000190F081E02D0994AF92BF92CF92DF922F
:1001C000EF92FF920F931F93CF93DF936C017B010C
:1001D0008B01040F151FEB015E01AE18BF08C0179D
:1001E000D10759F06991D601ED91FC910190F08110
:1001F000E02DC6010995892B79F7C501DF91CF91D3
:100200001F910F91FF90EF90DF90CF90BF90AF9034
:100210000895FC01538D448D252F30E0842F90E00C
:10022000821B930B541710F0CF96089501970895F1
:10023000FC01918D828D981761F0A28DAE0FBF2FBA
:10024000B11D5D968C91928D9F5F9F73928F90E010
:1002500008958FEF9FEF0895FC01918D828D98177F
:1002600031F0828DE80FF11D858D90E008958FEFBC
:100270009FEF0895FC01918D228D892F90E0805C85
:100280009F4F821B91098F73992708958BEC91E002
:100290000E943A0121E0892B09F420E0822F089581
:1002A00080E090E0892B29F00E94460181110C9496
:1002B00000000895FC01A48DA80FB92FB11DA35A09
:1002C000BF4F2C91848D90E001968F739927848F76
:1002D000A689B7892C93A089B1898C918370806499
:1002E0008C93938D848D981306C00288F389E02D3A
:1002F00080818F7D80830895EF92FF920F931F93EB
:10030000CF93DF93EC0181E0888F9B8D8C8D9813C8
:100310001AC0E889F989808185FF15C09FB7F894D4
:10032000EE89FF896083E889F98980818370806420
:1003300080839FBF81E090E0DF91CF911F910F916B
:10034000FF90EF900895F62E0B8D10E00F5F1F4F7A
:100350000F731127E02E8C8D8E110CC00FB607FC89
:10036000FACFE889F989808185FFF5CFCE010E9417
:100370005A01F1CFEB8DEC0FFD2FF11DE35AFF4F2A
:10038000F0829FB7F8940B8FEA89FB8980818062A5
:10039000CFCFCF93DF93EC01888D8823B9F0AA8962
:1003A000BB89E889F9898C9185FD03C0808186FD30
:1003B0000DC00FB607FCF7CF8C9185FFF2CF80817F
:1003C00085FFEDCFCE010E945A01E9CFDF91CF9199
:1003D000089590E0FC01E458FF4F2491FC01E255A0
:1003E000FF4F3491FC01E656FF4FE491EE23C9F034
:1003F000222339F0233001F1A8F4213019F1223001
:1004000029F1F0E0EE0FFF1FEE58FF4FA591B491D8
:100410008FB7F894EC91611126C030953E233C9340
:100420008FBF08952730A9F02830C9F0243049F74C
:10043000809180008F7D03C0809180008F778093B2
:100440008000DFCF84B58F7784BDDBCF84B58F7D0F
:10045000FBCF8091B0008F778093B000D2CF809196
:10046000B0008F7DF9CF3E2BDACFCF93DF9390E0B2
:10047000FC01E255FF4F249186569F4FFC01849169
:100480008823D1F090E0880F991FFC01E859FF4FB5
:10049000A591B491FC01EE58FF4FC591D491623003
:1004A00071F49FB7F8943C91822F809583238C93AD
:1004B000E8812E2B28839FBFDF91CF9108958FB7BE
:1004C000F894EC912E2B2C938FBFF6CF3FB7F89476
:1004D0008091BD019091BE01A091BF01B091C0017A
:1004E00026B5A89B05C02F3F19F00196A11DB11D8F
:1004F0003FBFBA2FA92F982F8827BC01CD01620FCB
:10050000711D811D911D42E0660F771F881F991F85
:100510004A95D1F708958F929F92AF92BF92CF9252
:10052000DF92EF92FF924B015C010E9466026B0129
:100530007C010E9466026C197D098E099F09683E44
:10054000734081059105A8F321E0821A9108A10862
:10055000B10888EEC80E83E0D81EE11CF11C81149E
:100560009104A104B10429F7FF90EF90DF90CF90A0
:10057000BF90AF909F908F900895CF92DF92EF92AF
:10058000FF920F931F93CF93DF93CDB7DEB7C05485
:10059000D1400FB6F894DEBF0FBECDBF2FB7F89491
:1005A0008091C7019091C801A091C901B091CA0181
:1005B0002FBF40917102509172026091730270914D
:1005C00074028C019D01041B150B260B370BB9011E
:1005D000A801403D57406105710590F48091790272
:1005E000C05CDE4F0FB6F894DEBF0FBECDBFDF910B
:1005F000CF911F910F91FF90EF90DF90CF900895D2
:100600008093710290937202A0937302B09374026C
:1006100010926C0210926B0210926A0210926902A0
:100620001092680262E080916D020E94350261E0E2
:1006300070E080E090E00E948B0261E080916D02AA
:100640000E94350260E080916D020E94E901809174
:100650006E028551823020F58BE291E10197F1F72E
:1006600062E080916D020E94350280917A0290E0F2
:100670008230910538F0880F991F880F991F0597D0
:100680000197F1F7F89480E00E949D006F3F7F4F43
:100690008F4F9F4F61F410927902789480E0A0CF41
:1006A00064E170E080E090E00E948B02D9CF81E0AD
:1006B0000E949D006F3F7F4F8F4F9F4F61F38E01D0
:1006C0000F5F1F4F6E018FEBC81A8EEFD80A7801AB
:1006D00080E00E949D00F701608371838283938391
:1006E00081E00E949D00F701648375838683978370
:1006F000F8E0EF0EF11CEC14FD0451F7789430E0B3
:1007000020E0F801C080D180E280F38044815581EF
:1007100066817781FFEFCF16DF06EF06FF0631F027
:100720004F3F8FEF58076807780719F41092790246
:10073000B5CFF90183E0F595E7958A95E1F7E8599A
:10074000FD4F8081880FC416D506E606F70610F126
:1007500080832F5F3F4F085F1F4F2832310589F696
:1007600040916C022091680280916902280F332722
:10077000331F80916A02280F311D80916B02820F16
:10078000932F911D99274817190681F681E08093D0
:10079000790226CF8160DCCF089590E080E0089553
:1007A000CF93DF93EC0160E08E810E94E90161E06C
:1007B0008E810E94E90160E08E810E94E9018BE850
:1007C00091E00197F1F7DF91CF910895CF92DF92F9
:1007D000EF92FF920F931F93CF93DF936C017C01F5
:1007E00087E0E80EF11CD0E0C0E0062F10E0B80171
:1007F0000C2E02C0759567950A94E2F76170F701B7
:1008000081917F010E94E9012196C430D10579F7D9
:10081000C601DF91CF911F910F91FF90EF90DF9074
:10082000CF900C94D003CF92DF92EF92FF920F9370
:100830001F93CF93DF93EC01F62E642F8C810E94DF
:10084000E9018D818F3F19F060E00E94E9010F2DD1
:1008500010E08F8584FF25C06E0187E0C80ED11C93
:10086000F12CE12CB8010E2C02C0759567950A9405
:10087000E2F76170F60181916F010E94E901FFEFDB
:10088000EF1AFF0A88E0E816F10461F7CE01DF9164
:10089000CF911F910F91FF90EF90DF90CF900C942C
:1008A000D003B80184E0759567958A95E1F7CE018C
:1008B0000E94E6036F2DCE01DF91CF911F910F9122
:1008C000FF90EF90DF90CF900C94E60340E0682F0C
:1008D0008BE792E00C941304CF93DF93613029F0FF
:1008E00090918A02986090938A0260938E0210928F
:1008F0008F0290E49093900280939102805C8093A9
:10090000920261E080917F020E9435028091800214
:100910008F3F19F061E00E94350261E08091810211
:100920000E943502CBE7D2E09E012B5732408091E6
:100930008A0284FD0BC084E090E0219628173907D5
:1009400044F461E08E810E943502EECF88E090E0B1
:10095000F4CF8BE39DE00197F1F760E080917F0297
:100960000E94E90160E0809181020E94E90180918A
:1009700080028F3F19F060E00E94E90180918A02B5
:1009800084FD39C063E08BE792E00E94E603CBE48C
:10099000D6E4CE010197F1F763E08BE792E00E9485
:1009A000E6032197F1F763E08BE792E00E94E6030C
:1009B00083E592E00197F1F762E08BE792E00E9415
:1009C000E60380918A0280620E94660484E080933C
:1009D0008B028CE00E94660481E00E9466048BE337
:1009E0009FE10197F1F782E080938C0286E0DF912E
:1009F000CF910C94660480620E9466048BE496E4B6
:100A00000197F1F780918A0280620E94660483E573
:100A100092E00197F1F780918A0280620E94660459
:100A2000D0CF90918E02691710F06FEF690FE62F0B
:100A3000F0E0E558FD4F9489890F80680C946604B6
:100A400041E00E94130481E090E00895FB010190D1
:100A50000020E9F73197AF01461B570BDC01ED9100
:100A6000FC910280F381E02D09948F929F92AF92C6
:100A7000BF92EF92FF920F931F93CF93DF93CDB767
:100A8000DEB7A1970FB6F894DEBF0FBECDBF7C01D5
:100A9000FA01CB0119A2223008F42AE08E010F5D81
:100AA0001F4F822E912CB12CA12CBF01A5019401C6
:100AB0000E94020DF901CA016A300CF5605DD8018F
:100AC0006E938D01232B242B252B79F790E080E06A
:100AD000109721F0BD01C7010E942605A1960FB60F
:100AE000F894DEBF0FBECDBFDF91CF911F910F9164
:100AF000FF90EF90BF90AF909F908F900895695CAA
:100B0000DECFCF92DF92EF92FF920F931F93CF939E
:100B1000DF936B01770FEE08FF08F7FE1BC0EC01B7
:100B20006DE20E94D5008C0144275527BA014C196B
:100B30005D096E097F092AE0CE010E943505800F0C
:100B4000911FDF91CF911F910F91FF90EF90DF9058
:100B5000CF9008952AE0B701A601DF91CF911F91B0
:100B60000F91FF90EF90DF90CF900C943505CF93CD
:100B7000DF93BC018BEC91E00E942605EC016EE155
:100B800071E08BEC91E00E9426058C0F9D1FDF9198
:100B9000CF9108952F923F924F925F926F927F92E2
:100BA0008F929F92AF92BF92CF92DF92EF92FF927D
:100BB0001F93CF93DF93EC016A017B01722EAB018F
:100BC0009601CB01B6010E94FD0C61E271E081113A
:100BD00026C046015701E894B7F82FEF3FEF4FE7E3
:100BE0005FE7C501B4010E94FD0C81110CC02FEF1D
:100BF0003FEF4FE75FE7C501B4010E942C0B65E2B0
:100C000071E0181664F02FEF3FEF4FE75FE4C70184
:100C1000B6010E948B0C1816B4F469E271E0CE01A3
:100C2000DF91CF911F91FF90EF90DF90CF90BF9019
:100C3000AF909F908F907F906F905F904F903F907C
:100C40002F900C9426052FEF3FEF4FE75FECC70185
:100C5000B6010E942C0B87FDE0CF20E030E0A90117
:100C6000C701B6010E942C0B312C212C87FF09C033
:100C70006DE2CE010E94D5001C01F7FAF094F7F85E
:100C8000F09410E060E070E080E09FE3711641F0C6
:100C900020E030E040E251E40E94310B1F5FF6CFCC
:100CA000A70196010E94C00A2B013C010E94AA0BD9
:100CB0004B015C012AE0BC01A401CE010E94350574
:100CC0007C01E20CF31C1123C1F1C501B4010E94A7
:100CD000D90B9B01AC01C301B2010E94BF0A4B01B9
:100CE0005C016EE2CE010E94D500E80EF91E1150A3
:100CF00020F120E030E040E251E4C501B4010E945F
:100D0000900C2B013C010E94AA0B4B01B12CA12C91
:100D10002AE0B501A401CE010E943505E80EF91EB6
:100D2000C501B4010E94D90B9B01AC01C301B20102
:100D30000E94BF0A4B015C01DACFC701DF91CF915E
:100D40001F91FF90EF90DF90CF90BF90AF909F905A
:100D50008F907F906F905F904F903F902F9008956D
:100D60000C9426051F920F920FB60F9211242F9309
:100D70003F934F935F936F937F938F939F93AF9323
:100D8000BF93EF93FF938BEC91E00E945A01FF9188
:100D9000EF91BF91AF919F918F917F916F915F91F3
:100DA0004F913F912F910F900FBE0F901F9018956C
:100DB0001F920F920FB60F9211242F938F939F9330
:100DC000EF93FF93E091DB01F091DC018081E091F2
:100DD000E101F091E20182FD1BC090818091E4016C
:100DE0008F5F8F732091E501821741F0E091E4015C
:100DF000F0E0E553FE4F958F8093E401FF91EF9172
:100E00009F918F912F910F900FBE0F901F9018956B
:100E10008081F4CF1F920F920FB60F9211242F935F
:100E20003F938F939F93AF93BF938091C70190910E
:100E3000C801A091C901B091CA013091BC0123E061
:100E4000230F2D3758F50196A11DB11D2093BC012C
:100E50008093C7019093C801A093C901B093CA01C0
:100E60008091BD019091BE01A091BF01B091C001E0
:100E70000196A11DB11D8093BD019093BE01A09369
:100E8000BF01B093C001BF91AF919F918F913F91EE
:100E90002F910F900FBE0F901F90189526E8230FEB
:100EA0000296A11DB11DD2CFCF93EBECF1E01382DE
:100EB000128288EE93E0A0E0B0E084839583A6835D
:100EC000B78384E091E09183808385EC90E09587FF
:100ED000848784EC90E09787868780EC90E0918B04
:100EE000808B81EC90E0938B828B82EC90E0958BF1
:100EF000848B86EC90E0978B868B118E128E138EEE
:100F0000148EEBE7F2E01382128286E191E0918386
:100F100080838CE084838FEF8583CBE0C68385E07C
:100F2000878384E0808783E0818782E082871386DD
:100F3000148615861686178661E080E10E946C048F
:100F4000A8E6B2E086E015968C9315971696CC939A
:100F50001697E4EBF0E0E4911796EC931797E0EA2C
:100F6000F0E0E4911896EC93189740E85EE360E0B7
:100F700070E01D964D935D936D937C935097CF9148
:100F80000895CF93DF93CDB7DEB728970FB6F894C7
:100F9000DEBF0FBECDBF789484B5826084BD84B5BA
:100FA000816084BD85B5826085BD85B5816085BD64
:100FB00080916E00816080936E001092810080911C
:100FC00081008260809381008091810081608093A4
:100FD0008100809180008160809380008091B100C9
:100FE00084608093B1008091B00081608093B000F4
:100FF00080917A00846080937A0080917A00826088
:1010000080937A0080917A00816080937A00809149
:101010007A00806880937A001092C100E091DB0131
:10102000F091DC0182E08083E091D701F091D8015A
:101030001082E091D901F091DA018FEC8083109257
:10104000E301E091DF01F091E00186E08083E0912F
:10105000DD01F091DE01808180618083E091DD011E
:10106000F091DE01808188608083E091DD01F09164
:10107000DE01808180688083E091DD01F091DE01F6
:1010800080818F7D808362E080916D020E943502B5
:101090002FB7F8948091C7019091C801A091C90120
:1010A000B091CA012FBF805D9740A109B10980931B
:1010B000710290937202A0937302B093740287E35B
:1010C00080937A0264E084E10E946C0464EF71E032
:1010D00080E090E00E948B0230E0232E30E0332E3F
:1010E00060ED77E080E090E00E948B020E94BD02FC
:1010F000882349F080916E028B3028F08D3050F0BB
:1011000085518230C0F1812C912C20ECA22E2FE74A
:10111000B22E1EC06091690270E090E080E00E94F3
:10112000DB0B2DEC3CEC4CEC5DE30E94900C6B0176
:101130007C016091680270E090E080E00E94DB0B2F
:101140009B01AC01C701B6010E94C00A4B015C01C2
:101150000E94BD02882341F080916E028C3009F418
:10116000E7C1D8F48B30C1F1C12CD12C80ECE82E32
:101170008FE7F82E5DC06091680270916902762752
:101180006727762790E080E00E94D90B2DEC3CEC9D
:101190004CEC5DE30E94900CD9CF8551823020F752
:1011A00020916A022983622F70E0762F66276627D6
:1011B0007F7780916B02682B90E080E00E94D90BD2
:1011C0002DEC3CEC4CEC5DE30E94900C6B017C013F
:1011D000398137FF2DC0CEC160916A0270E090E086
:1011E00080E00E94D90B6B017C0120916B02298366
:1011F00027FF0AC0AC019B0160E070E080E89FEB34
:101200000E94BF0A6B017C0139813F70632F70E03F
:1012100090E080E00E94DB0B2DEC3CEC4CEC5DE3BD
:101220000E94900CA70196010E94C00A6B017C01EC
:101230000E948C00BC01990F880B990B0E94DB0B5C
:1012400020E030E040EA5BE30E94900C6D837E83F7
:101250008F83988709EC10E01A8219820E948C0013
:1012600029813A812817390714F49A838983015018
:101270001109A1F789819A818630924024F484E093
:1012800092E09A83898369817A8164507240072E43
:10129000000C880B990B0E94DB0B24EF3DEF44E31D
:1012A0005FE30E94900C26ED36E54DE351E40E9489
:1012B000310B2B013C0120E030E04CE553E40E946F
:1012C000900C0E94A30B69837A838B839C8380910B
:1012D000C5019091C60129813A818217930724F4B0
:1012E0003093C6012093C50129813A81B901330F9A
:1012F000880B990B0E94DB0B28EE32E14FEB56E393
:101300000E94900C9B01AC016091C1017091C201DF
:101310008091C3019091C4010E94C00A6093C101F1
:101320007093C2018093C3019093C4018DE291E058
:101330000E94B70565E471E08BEC91E00E94B00675
:1013400022E0B501A4018BEC91E00E94CA056EE198
:1013500071E08BEC91E00E94260560E571E08BEC7A
:1013600091E00E94B00622E0B701A6018BEC91E06B
:101370000E94CA056EE171E08BEC91E00E942605A7
:101380008DE291E00E94B7056EE571E08BEC91E093
:101390000E94B00622E04D815E816F8178858BECE2
:1013A00091E00E94CA0588E691E00E94B7056BE6CD
:1013B00071E08BEC91E00E94B00622E0B301A20143
:1013C0008BEC91E00E94CA0585E791E00E94B70589
:1013D00068E771E08BEC91E00E94B00669817A8148
:1013E0008BEC91E00E94810580E891E00E94B705B6
:1013F00063E871E08BEC91E00E94B0064091C1017E
:101400005091C2016091C3017091C40122E08BEC44
:1014100091E00E94CA0582E991E00E94B7058DE241
:1014200091E00E94B70560E080E00E94110567E945
:1014300071E08BE792E00E94B00622E0B701A601BE
:101440008BE792E00E94CA0560E089E00E941105E6
:101450006BE971E08BE792E00E94B00622E0B501F3
:10146000A4018BE792E00E94CA0561E080E00E943F
:1014700011056FE971E08BE792E00E94B00622E06F
:101480004D815E816F8178858BE792E00E94CA056D
:1014900061E089E00E94110563EA71E08BE792E068
:1014A0000E94B00622E0B301A2018BE792E00E9405
:1014B000CA0562E080E00E94110567EA71E08BE7EF
:1014C00092E00E94B00669817A818BE792E00E94E7
:1014D000810560E871E08BE792E00E94B00663E06E
:1014E00080E00E9411056FEA71E08BE792E00E94B4
:1014F000B0064091C1015091C2016091C301709149
:10150000C40122E08BE792E00E94CA0562E971E023
:101510008BE792E00E94B0062114310409F4E0CD7B
:101520000E944601882309F4DBCD0E940000D8CD3B
:1015300080916A028983682F70E090E080E00E94C9
:10154000D90B6B017C0160916B026F7070E090E0D1
:1015500080E00E94DB0B2DEC3CEC4CEC5DE30E9448
:10156000900CA70196010E94C00A6B017C01998131
:1015700097FF5ECEF7FAF094F7F8F09459CE5058F2
:10158000BB27AA270E94D70A0C94510C0E94430C37
:1015900038F00E944A0C20F039F49F3F19F426F4E9
:1015A0000C94400C0EF4E095E7FB0C943A0CE92FF8
:1015B0000E94620C58F3BA176207730784079507F5
:1015C00020F079F4A6F50C94840C0EF4E0950B2E23
:1015D000BA2FA02D0B01B90190010C01CA01A00185
:1015E0001124FF27591B99F0593F50F4503E68F1E0
:1015F0001A16F040A22F232F342F4427585FF3CF21
:10160000469537952795A795F0405395C9F77EF4F1
:101610001F16BA0B620B730B840BBAF09150A1F03A
:10162000FF0FBB1F661F771F881FC2F70EC0BA0FC0
:10163000621F731F841F48F4879577956795B79548
:10164000F7959E3F08F0B0CF9395880F08F0992743
:10165000EE0F9795879508950E94160C08F481E087
:1016600008950E94450B0C94510C0E944A0C58F0AE
:101670000E94430C40F029F45F3F29F00C943A0C8F
:1016800051110C94850C0C94400C0E94620C68F370
:101690009923B1F3552391F3951B550BBB27AA272B
:1016A00062177307840738F09F5F5F4F220F331F65
:1016B000441FAA1FA9F335D00E2E3AF0E0E832D02D
:1016C00091505040E695001CCAF72BD0FE2F29D030
:1016D000660F771F881FBB1F261737074807AB0702
:1016E000B0E809F0BB0B802DBF01FF2793585F4F77
:1016F0003AF09E3F510578F00C943A0C0C94850C0E
:101700005F3FE4F3983ED4F3869577956795B79558
:10171000F7959F5FC9F7880F911D9695879597F963
:101720000895E1E0660F771F881FBB1F62177307DC
:101730008407BA0720F0621B730B840BBA0BEE1FF1
:1017400088F7E09508950E94AA0B6894B1110C9453
:10175000850C08950E946A0C88F09F5798F0B92F65
:101760009927B751B0F0E1F0660F771F881F991FD6
:101770001AF0BA95C9F714C0B13091F00E94840CE8
:10178000B1E008950C94840C672F782F8827B85FF8
:1017900039F0B93FCCF3869577956795B395D9F72E
:1017A0003EF490958095709561957F4F8F4F9F4F38
:1017B0000895E89409C097FB3EF490958095709544
:1017C00061957F4F8F4F9F4F9923A9F0F92F96E98D
:1017D000BB279395F695879577956795B795F11102
:1017E000F8CFFAF4BB0F11F460FF1BC06F5F7F4F9F
:1017F0008F4F9F4F16C0882311F096E911C07723B1
:1018000021F09EE8872F762F05C0662371F096E8B9
:10181000862F70E060E02AF09A95660F771F881F88
:10182000DAF7880F9695879597F90895990F00082C
:10183000550FAA0BE0E8FEEF16161706E807F907A2
:10184000C0F012161306E407F50798F0621B730B3D
:10185000840B950B39F40A2661F0232B242B252BBE
:1018600021F408950A2609F4A140A6958FEF811D61
:10187000811D089597F99F6780E870E060E0089502
:101880009FEF80EC089500240A9416161706180698
:101890000906089500240A94121613061406050674
:1018A0000895092E0394000C11F4882352F0BB0F05
:1018B00040F4BF2B11F460FF04C06F5F7F4F8F4F68
:1018C0009F4F089557FD9058440F551F59F05F3FA3
:1018D00071F04795880F97FB991F61F09F3F79F052
:1018E00087950895121613061406551FF2CF4695D4
:1018F000F1DF08C0161617061806991FF1CF869556
:101900007105610508940895E894BB276627772739
:10191000CB0197F908950E94160C08F48FEF0895F3
:101920000E94A30C0C94510C0E94430C38F00E94AE
:101930004A0C20F0952311F00C943A0C0C94400CB6
:1019400011240C94850C0E94620C70F3959FC1F3D6
:10195000950F50E0551F629FF001729FBB27F00D5D
:10196000B11D639FAA27F00DB11DAA1F649F6627B2
:10197000B00DA11D661F829F2227B00DA11D621F01
:10198000739FB00DA11D621F839FA00D611D221FBB
:10199000749F3327A00D611D231F849F600D211D9F
:1019A000822F762F6A2F11249F5750409AF0F1F022
:1019B00088234AF0EE0FFF1FBB1F661F771F881F8B
:1019C00091505040A9F79E3F510580F00C943A0C7D
:1019D0000C94850C5F3FE4F3983ED4F3869577959D
:1019E0006795B795F795E7959F5FC1F7FE2B880F31
:1019F000911D9695879597F908950E94160C880B6E
:101A0000990B0895A1E21A2EAA1BBB1BFD010DC064
:101A1000AA1FBB1FEE1FFF1FA217B307E407F5079E
:101A200020F0A21BB30BE40BF50B661F771F881F7A
:101A3000991F1A9469F760957095809590959B0110
:101A4000AC01BD01CF010895EE0FFF1F0590F49189
:081A5000E02D0994F894FFCF8A
:101A5800000000007C01DC000901C9013A011801FD
:101A68002C01000000002005DC00CD03CC030D0A8A
:101A7800006E616E00696E66006F7666003D3D3DE2
:101A88003D3D3D3D3D3D3D3D3D3D3D3D3D3D3D3D7E
:101A98003D3D3D200068756D69646974793D20009D
:101AA80074656D70657261747572653D2000566F5E
:101AB8006C746167653A2000205600437572726540
:101AC8006E743A2000204100506F7765723A20000A
:101AD800205700456E657267792055736167653ACE
:101AE8002000206B576800543D2000483D200056D8
:101AF8003D2000413D2000506F7765723D20004534
:0C1B08006E65726779557365643D2000BE
:00000001FF
